:020000040800F2
:1000000000000520891901080115000803150008E2
:100010000515000807150008091500080000000074
:100020000000000000000000000000000161000866
:100030000B15000800000000A16100080D15000864
:10004000D9190108D9190108D9190108D9190108C4
:10005000D9190108D9190108D9190108D9190108B4
:10006000D9190108D9190108D9190108D9190108A4
:10007000D9190108D9190108D9190108D919010894
:10008000D9190108D9190108D9190108D919010884
:10009000D9190108D9190108D9190108D919010874
:1000A000D9190108D9190108D9190108D919010864
:1000B000D9190108D9190108D9190108D919010854
:1000C000D9190108D9190108D9190108D919010844
:1000D000D9190108D9190108D9190108D919010834
:1000E000D9190108D9190108D9190108D919010824
:1000F000D9190108D9190108D9190108D919010814
:10010000D9190108D9190108D9190108D919010803
:10011000D9190108D919010815150008D9190108BC
:10012000D9190108D9190108D9190108D9190108E3
:10013000F114000825150008D9190108D91901087A
:10014000D9190108D9190108D9190108351500086C
:10015000D9190108D9190108E1140008D9190108B1
:10016000D9190108D9190108D9190108D9190108A3
:10017000D9190108D9190108D9190108000000008E
:10018000D9190108D9190108D9190108D919010883
:10019000D9190108D9190108D9190108D919010873
:1001A00045150008D919010855150008D919010885
:1001B000D9190108D9190108D9190108D919010853
:0801C000D9190108D919010841
:1001D00010B5054C237833B9044B13B10448AFF381
:1001E00000800123237010BDB40000200000000037
:1001F000B82D01080C4B43B10C480D4910B5AFF3B5
:1002000000800C48036823B910BD0A48036833B95D
:100210007047094B002BF7D0BDE810401847064B3C
:10022000002BF5D0184700BF00000000B82D0108D2
:10023000B8000020B400002000000000034613F8BE
:10024000012B002AFBD1181A01387047000000006A
:1002500001F0FF01102A2BDB10F0070F08D010F877
:10026000013B013A8B422DD010F0070F42B3F6D17B
:10027000F0B441EA012141EA014122F007047FF094
:1002800000070023F0E80256083C85EA010586EAEB
:10029000010685FA47F5A3FA87F586FA47F6A5FA27
:1002A00087F68EB9EED1F0BC01F0FF0102F0070233
:1002B00032B110F8013B013A83EA010313B1F8D1DE
:1002C0000020704701387047002D06BF35460338BF
:1002D000073815F0010F07D1013015F4807F02BFF8
:1002E000013015F4C03F0130F0BC0138704700BF49
:1002F00053B94AB9002908BF00281CBF4FF0FF318D
:100300004FF0FF3000F07AB9ADF1080C6DE904CE82
:1003100000F006F8DDF804E0DDE9022304B07047E0
:100320002DE9F0478C460D460446089E002B51D11E
:100330008A4217466DD9B2FA82FEBEF1000F0BD089
:10034000CEF1200C01FA0EF520FA0CFC02FA0EF7A1
:100350004CEA050C00FA0EF44FEA174A250CBCFBD8
:10036000FAF81FFA87F90AFB18CC45EA0C4508FB96
:1003700009F3AB420AD9ED1908F1FF3280F023816D
:10038000AB4240F22081A8F102083D44ED1AA4B22C
:10039000B5FBFAF00AFB105544EA054400FB09F9E5
:1003A000A14509D9E41900F1FF3380F00A81A14584
:1003B00040F2078102383C44A4EB090440EA0840BB
:1003C0000021002E61D024FA0EF400233460736003
:1003D000BDE8F0878B4207D9002E54D0002186E873
:1003E00021000846BDE8F087B3FA83F1002940F008
:1003F0008E80AB4202D3824200F2FA80841A65EB0F
:1004000003050120AC46002E3FD086E81010BDE861
:10041000F08712B90127B7FBF2F7B7FA87FEBEF1F2
:10042000000F34D1EB1B3A0C1FFA87FC0121B3FB00
:10043000F2F8250C02FB183345EA03450CFB08F3E0
:10044000AB4207D9ED1908F1FF3002D2AB4200F2FE
:10045000D1808046ED1AA3B2B5FBF2F002FB105535
:1004600043EA05440CFB00FCA44507D9E41900F15C
:10047000FF3302D2A44500F2B8801846A4EB0C0466
:1004800040EA08409DE731463046BDE8F087CEF1AE
:10049000200405FA0EF307FA0EF720FA04F83A0CD6
:1004A00025FA04F448EA0308B4FBF2F14FEA1845D0
:1004B00002FB11441FFA87FC45EA044501FB0CF3DB
:1004C000AB4200FA0EF409D9ED1901F1FF3080F0CA
:1004D0008A80AB4240F2878002393D44EB1A1FFA12
:1004E00088F5B3FBF2F002FB103345EA034500FB4D
:1004F0000CF3AB4207D9ED1900F1FF386FD2AB42D4
:100500006DD902383D44EB1A40EA01418FE7C1F151
:10051000200722FA07F88B4005FA01F448EA0303A2
:1005200020FA07FE4FEA134CFD404EEA040EB5FBDD
:10053000FCF94FEA1E440CFB19551FFA83F844EAF4
:10054000054509FB08F4AC4202FA01F200FA01FA8F
:1005500008D9ED1809F1FF3043D2AC4241D9A9F1D5
:1005600002091D442D1B1FFA8EFEB5FBFCF00CFB8F
:1005700010554EEA054400FB08F8A04507D9E418D9
:1005800000F1FF3529D2A04527D902381C4440EAA2
:100590000940A4EB0804A0FB02894C45C6464D4621
:1005A00015D312D056B1BAEB0E0364EB050404FA6E
:1005B00007F7CB401F43CC40376074600021BDE893
:1005C000F0871846F8E69046E0E6C245EAD2B8EB76
:1005D000020E69EB03050138E4E72846D7E74046F9
:1005E00091E78146BEE7014678E702383C4445E79B
:1005F000084608E7A8F102083D442BE7704700BF12
:100600002DE9F04F91B0954B1A6B42F010021A632E
:100610001A6B02F010020092009A1A6B42F040022C
:100620001A631A6B02F040020192019A1A6B42F0AF
:1006300002021A631A6B02F002020292029A1A6B09
:1006400042F008021A631A6B02F008020392039A3E
:100650001A6B42F004021A631A6B02F0040204924D
:10066000049A1A6B42F001021A631A6B02F001023B
:100670000592059A1A6B42F400721A631A6B02F41F
:1006800000720692069A1A6B42F480721A631A6B11
:1006900002F480720792079A1A6B42F480621A631E
:1006A0001A6B02F480620892089A1A6B42F02002D8
:1006B0001A631A6B02F020020992099A1A6B42F02F
:1006C00080021A631B6B03F080030A930A9B0122CA
:1006D0002021634805F00CF900220C21614805F047
:1006E00007F901220821604805F002F901224FF4C0
:1006F00080515C4805F0FCF8DFF88CA100224FF433
:100700000051504605F0F4F80022C821574805F082
:10071000EFF84FF0080BCDF82CB000240C940D949A
:100720000BA9534804F058FF43F623430B934FF0B3
:100730000208CDF830800D9403270E970A260F96F5
:100740000BA94C4804F048FF4FF480530B930C94D2
:100750000D940BA9484804F03FFF20230B9301257B
:100760000C950D940E940BA93D4804F035FF41F211
:100770000C030B930C950D940E940BA9394804F0BF
:100780002BFF4FF40059CDF82C900C940D940BA92D
:100790003A4804F021FFCDF82CB00C950D940E943E
:1007A0000BA9314804F018FF4FF0100BCDF82CB016
:1007B0000C940D940BA92A4804F00EFF48F2040390
:1007C0000B930C940D940BA9504604F005FFCDF843
:1007D0002C900C950D940E940BA9504604F0FCFE41
:1007E000CDF82C90264B0C930D940BA91D4804F0CA
:1007F000F3FECDF82CB0CDF830800D940E970F9607
:100800000BA9504604F0E8FEC8230B930C950D94F9
:100810000E940BA9154804F0DFFE05230B93CDF8C9
:1008200030800D940E970F960BA9144804F0D4FE57
:1008300004230B930C940D940BA90C4804F0CCFEEC
:1008400028230B93CDF830800D940E970F960BA9AB
:100850000C4804F0C1FE11B0BDE8F08F0038024032
:10086000000C024000200240002802400018024014
:100870000010024000040240002402400008024030
:100880000000121000000240001C024008B510F0E9
:10089000BDFA4FF0404100200FF0D6FD1449012071
:1008A0000FF0D2FD10F0E4F900200FF00DFE4FF034
:1008B000FF300FF04DFE4FF0FF300FF02DFE4FF0E8
:1008C000FF3101200FF00EFE01200FF0FDFD4FF073
:1008D000FF300FF03DFE4FF0FF300FF01DFEFF2107
:1008E00000200FF0F7FDFF2101200FF0F3FD08BD00
:1008F00000F807C001B9704708B5024811F06AF95D
:1009000008BD00BFFC2F0108044B1B68DA6912F018
:10091000800FF9D0C0B298620020704790900020FC
:10092000064B1B68DA6912F0280F04D008221A62FD
:10093000586AC0B270470020704700BF90900020F6
:10094000F8B504460D4616461F4600200FF0BCFDC4
:1009500006980FF0D5FDA4B2ADB2BBB2B2B2294633
:10096000204610F0A9F806480FF0CAFD691D601D69
:100970000023079A89B280B20FF03CFFF8BD00BF98
:10098000800000FF00B585B000200FF09DFD4FF006
:10099000FF200FF0B5FD4FF488734FF4F072002183
:1009A000084610F089F801200FF08EFD094B93E8FE
:1009B00003000290ADF80C1002AB01936FF47F437B
:1009C000009364231A4632210846FFF7B9FF05B0A9
:1009D0005DF804FB7C2F010830B52DED048B87B04A
:1009E000054600200FF070FD4FF0FF300FF0B0FD16
:1009F0004FF07F400FF084FD4FF4E172FA21142094
:100A00000FF0C4FDE622142108460FF0FBFDD5EDE2
:100A1000008AB0EE687A012300E00133592B12DC22
:100A200005EB8302D2ED007AB4EEE77AF1EE10FA2C
:100A300001DDB0EE677AF4EEE78AF1EE10FAECD55C
:100A4000F0EE678AE9E7FDEEC79AFDEEE87A17EE69
:100A5000903A19EE902A9A1AC82393FBF2F307EE04
:100A6000903AB8EEE78A38EEC79A5A480FF048FD38
:100A7000012411E068EE277A9FED577A77EE677AC6
:100A8000FCEEE77ACDED007A4FF4E172BDF800108C
:100A900014200FF07BFD013407EE904AF8EEE77A60
:100AA000B4EEE79AF1EE10FAE4DC4C480FF028FDC2
:100AB00000232DE09900C81814305C1CA3001A19FB
:100AC00014322944D1ED007AF8EEE96A77EEE67A3D
:100AD00068EE277A9FED407A77EE677AFDEEE77A47
:100AE000CDED007A2B44D3ED007A77EEE67A68EE0E
:100AF000277A77EE677AFDEEE77ACDED017ABDF8D9
:100B0000043092B2BDF8001080B20FF0DDFE234633
:100B1000582BCFDD4FF07F400FF0F2FC1923ADF8DA
:100B20000C300F23ADF810301423ADF814301E2212
:100B3000ADF80E20ADF81220ADF81630032103A851
:100B400010F004F84FF4E673ADF80C304FF4EB728C
:100B5000ADF81020ADF81430F523ADF80E30FA23BF
:100B6000ADF81230FF23ADF81630032103A80FF0C3
:100B7000EDFF1B480FF0DEFC002420E019EE902A68
:100B8000184902A811F000F907EE904AF8EEE77A4A
:100B900027EE887ADFED147A77EEC77AFCEEE77AF3
:100BA000CDED007A032302AABDF8001005200FF056
:100BB00021FE053419EE903A053309EE903AF8EE2D
:100BC000E97AF4EEE78AF1EE10FAD7DA07B0BDEC75
:100BD000048B30BDD3D3D3FF00007A43800000FFE5
:100BE00014000020842F01080000754310B50FF099
:100BF00013FC84B20FF01CFC81B2204610F0A8FA5E
:100C000008B9002010BD4FF0FF3010BD00B585B011
:100C100003910A4B029300230193022300931023B4
:100C2000074A08490FF0AAF910B905B05DF804FBAE
:100C30000146054810F0CEFFF7E700BFF5080008B1
:100C4000882F01089C2F0108AC2F010810B5ADF5C5
:100C5000007D00F073F906E0FFF762FE702830D0E7
:100C6000022006F0E3FA1B4C204610F0D3FA23785A
:100C7000002BF1D04FF0FF300FF06AFC00200FF096
:100C800023FC4FF0FF200FF03BFC4FF488734FF430
:100C9000F072002108460FF00FFF01200FF014FC46
:100CA00002AB0D4903C90290ADF80C1001936FF42B
:100CB0007F43009364231A4632210846FFF740FE23
:100CC000CAE706480FF0F2FA022104A8FFF79EFFD8
:100CD000C6E700BFD00000207C2F01086C2F010860
:100CE00008B50268034B9A4200D008BD05F03EF8F3
:100CF000FBE700BF00100040FEE7000008B50C480D
:100D00000C4B03604FF4E133436000238360C36006
:100D100003610C2242618361C3610362436203F099
:100D20001EFE00B908BD40F23D210348FFF7E4FF75
:100D30009090002000100140602F010808B50C4879
:100D40000C4B03604FF4E133436000238360C360C6
:100D500003610C2242618361C3610362436203F059
:100D6000FEFD00B908BD40F252210348FFF7C4FF61
:100D70006091002000140140602F010800B5B5B05B
:100D8000474B1A6C42F080521A641B6C03F080537C
:100D90000093009B434B1A6842F440421A601B6860
:100DA00003F440430193019B092328934FF48033BC
:100DB000299301232D9302232E934FF480022F9227
:100DC000192230924FF4C872319232930823339330
:100DD00028A803F0F9FD00284ED104F07DFF00287B
:100DE0004FD10F23239302232493002325934FF401
:100DF000A05326934FF480532793062123A804F091
:100E00001FF8002842D1284B029364230393022346
:100E1000069304930593C02307930423099308932F
:100E200001230A930B930C934FF400330D934FF46B
:100E300000730E9300231293139318931B931D9327
:100E40004FF000622192229302A804F0EFF810BB49
:100E500004F0A8F8154BA3FB0030800902F036F827
:100E6000042002F049F800220F214FF0FF3001F07A
:100E7000F1FF35B05DF804FB40F2E9110C48FFF7D3
:100E80003BFF4FF4F8710A48FFF736FF4FF4FF714C
:100E90000748FFF731FF40F21B210548FFF72CFF01
:100EA00000380240007000406848B101D34D621024
:100EB000602F010800B5E1B0194C4FF4B47221461F
:100EC00006A810F0C8FD04F045FFFFF757FFFFF735
:100ED00097FBFFF713FFFFF731FF12480FF078F988
:100EE00011480FF0E3F9114810F0FCFEFFF7CEFCBB
:100EF000FFF748FDFFF77AFE06A8FFF76DFD01AD8D
:100F000004F5B4740FCC0FC523682B60002101A831
:100F100006F011FC064B186006F0FEFBFEE700BF72
:100F2000D02D010890900020C02F0108EC2F01085F
:100F3000188C0020704770477047000030B585B0AE
:100F40000021084606F0EEFE114900200860114A13
:100F50001060114B1860114C114D0295114D019507
:100F6000009020460BF04EFD20460BF08BFD94F8D0
:100F70002F3013F0040F07D108480BF09BFD0748F2
:100F80000DF00EFA05B030BD20460BF081FDF6E7FE
:100F9000889300208C93002090930020549300208D
:100FA0008D7C0008651300082DE9F047344800F0F7
:100FB00073FF002860D1324B998FD3F8408049B934
:100FC0004FF0000ABAF1000F33D02D4B1F6BD14602
:100FD000002427E00322042008F0E6FF8246F1E720
:100FE000D9F8040040F2F452121B08EB040130441B
:100FF00010F031FDFF68D7F80880A5F2F452361BD7
:1010000006F2F4560024A51840F2F4539D42E7D8A6
:10101000D9F8040008EB0401304410F01CFDD9F8A5
:1010200000902C46B9F1000F03D0B9F80A20002631
:10103000E9E7134B1B6B002105E01A6842F0004200
:101040001A60DB6801310E4A926B9142F5D30C4B6A
:1010500000229A631B6841F214029A5812F0800F22
:1010600007D0802141F214029950002141F2080278
:1010700099505046BDE8F0874FF0000AF9E700BFED
:1010800064AC002038B505464FF0FF310B4B1868B3
:1010900006F0EEFB0028F7D101E0002CF4D0284642
:1010A000FFF782FF04460028F7D02B6929469847AE
:1010B0000028F2D0204608F00BFFEEE7FC000020ED
:1010C0002DE9F84F8B462C4BDE6AD6F808A0002499
:1010D0002746BBF1000F32D03368002B35DBBBF85D
:1010E0000A90002504EB090840F2F453984519D9F9
:1010F000DBF8041040F2F452121B29440AEB0400FE
:1011000010F0A9FCF6683368002B21DBD6F808A0A4
:10111000A8F2F4592D1B05F2F4553F1B07F2F457C2
:101120000024DFE7DBF804104A4629440AEB0400F8
:1011300010F091FC4F44DBF800B04446C9E7394653
:101140000D4800F017FE002004E06FF0070001E0FA
:101150006FF00700084B1B6841F214029A5812F016
:10116000200F07D0202141F214029950002141F2B2
:1011700004029950BDE8F88F64AC0020F0B58BB044
:101180000446002309933E483E4A02600122426021
:1011900003828DF81C3080218DF81D10E1218DF81F
:1011A0001E108DF81F30CA218DF82010FF218DF8F8
:1011B000211007A941618261C3614FF400030362FA
:1011C00000F074FF28B994F82F3043F0040384F83A
:1011D0002F302B4D04232C4A2C49284600F05BFD70
:1011E00004232B4A2B49284600F08EFD062384F861
:1011F00028306B691A7884F829205A7884F82A20D4
:101200009A7884F82B20DA7884F82C201A7984F8DC
:101210002D205B7984F82E3040F2DC53E38494F87F
:101220002F3043F00A0384F82F300AA8002340F837
:10123000103D012106F006FB174B186001AE174F59
:101240000FCF0FC63B683360214601A806F073FA42
:10125000284601F055F809AA0B21284600F0B0FEF7
:10126000099A42F00B0209920B21284600F0E4FE95
:1012700009AA0B21284600F0A3FE0BB0F0BD00BF69
:1012800064AC002000800240ACAC002094930020AD
:1012900014940020E4AB0020FC0000204C2F010837
:1012A0000268284B9A4200D07047F0B589B0A3F588
:1012B00090431A6B42F000721A631A6B02F00072CC
:1012C0000092009A1A6B42F080621A631A6B02F065
:1012D00080620192019A1A6B42F000621A631B6BE2
:1012E00003F000630293029B4FF4D0430393022761
:1012F000049700240594032606960B25079503A959
:10130000114804F069F93223039304970594069673
:10131000079503A90D4804F05FF98623039304970A
:1013200005940696079503A9094804F055F9224645
:1013300005213D2001F08EFD3D2001F0BBFD09B0EF
:10134000F0BD00BF008002400018024000080240CB
:101350000000024008B5024B186806F0C3FA08BD49
:10136000FC00002010B5044670B1732384F83030BF
:10137000742384F83130084B6361084BA361204625
:10138000FFF7FCFE002010BD054B40F23E22054950
:10139000054810F01FFCE8E7C9F10008C11000087B
:1013A0001C300108303001084030010808B504F055
:1013B000E9FC08BD03460D4A126862B10B4A106889
:1013C0000B4A12681268A2F5005203449A4206D3EF
:1013D000064A136070470749044A1160EEE70C2281
:1013E000054B1A604FF0FF30704700BF000100202E
:1013F00008ED00E0300101204C00012070B51646D8
:10140000002405E04D1C0878FFF77EFA01342946D8
:10141000B442F7DB304670BD4FF0FF3070474FF4F9
:1014200000534B6000207047012070470020704738
:10143000F8B50D461746002405E06E1CAFF300809A
:10144000287001343546BC42F7DB3846F8BD08B594
:10145000D0F8BC020EF051FE08BD08B5D0F8BC02B1
:101460000EF05CFE08BD08B5D0F8BC020EF072FEAE
:1014700008BD08B5D0F8BC020EF096FE08BD08B550
:10148000D0F8BC020EF042FE08BD08B5D0F8BC0290
:101490000EF040FE08BD08B5D0F8C40301F061FBB2
:1014A00018B1022803D0022008BD002008BD012089
:1014B00008BD08B5D0F8C40301F069FB18B10228D3
:1014C00003D0022008BD002008BD012008BD000097
:1014D00008B502480EF0EAFEFEE700BF70300108D2
:1014E00008B5024B186F04F009FB08BD8C8800207A
:1014F00008B5024BD86E04F001FB08BD108900202E
:101500007047FEE7FEE7FEE7FEE7704708B506F026
:10151000A3FA08BD08B5024802F02CFE08BD00BFC2
:101520003CC7002008B5024800F004FD08BD00BF1C
:1015300064AC002008B5024801F06AFA08BD00BF9B
:101540007CC4002008B5024802F0FDFC08BD00BFC5
:10155000508F002008B5024801F00FFE08BD00BF03
:10156000D49100202C4B1B6803B17047F0B587B0B5
:101570000122294B1A60294B9A6B42F001029A63AF
:101580009B6B03F001030093009B4FF68373019361
:101590000227029700260396032504950C24059440
:1015A00001A91F4804F018F848F233130193029779
:1015B00003960495059401A91A4804F00DF84CF21D
:1015C00003730193029703960495059401A91648A5
:1015D00004F002F84FF63F03019302970396049537
:1015E000059401A9114803F0F7FF282301930297FE
:1015F00003960495059401A90D4803F0EDFF082317
:101600000193029703960495059401A9094803F0F4
:10161000E3FF07B0F0BD00BF040100200038024026
:101620000010024000180240000C0240001402406A
:10163000001C02400008024000B583B0214B1A6C28
:1016400042F080521A641A6C02F080520092009AA2
:101650005A6C42F480425A645B6C03F480430193F9
:10166000019B032001F0E4FB002211466FF00B0008
:1016700001F0F0FB002211466FF00A0001F0EAFBD6
:10168000002211466FF0090001F0E4FB0022114630
:101690006FF0040001F0DEFB002211466FF0030042
:1016A00001F0D8FB00220F216FF0010001F0D2FB06
:1016B00000220F214FF0FF3001F0CCFB03B05DF8AA
:1016C00004FB00BF0038024002680E4B9A4200D073
:1016D000704700B583B0A3F5F0431A6B42F40002E3
:1016E0001A631B6B03F400030193019B0022052185
:1016F0005A2001F0AFFB5A2001F0DCFB03B05DF88B
:1017000004FB00BF00B0024000B589B003681E4A68
:10171000934205D01D4A93421CD009B05DF804FBEA
:101720004FF4407303931223049301230593002382
:1017300006930423079303A9154803F04DFF154BA7
:101740001A6C42F400121A641B6C03F40013019328
:10175000019BE2E74FF4C073039312230493012328
:101760000593032306930423079303A90A4803F070
:1017700033FF084B1A6C42F400021A641B6C03F42A
:1017800000030293029BC8E700540040005C004045
:101790000004024000380240001C024008B5036803
:1017A0000F4A934203D00F4A93420CD008BD02F572
:1017B000F232136C23F4001313644FF440710A489F
:1017C00003F0F8FF08BD02F5EE32136C23F40003BA
:1017D00013644FF4C071054803F0ECFFE6E700BF67
:1017E00000540040005C004000040240001C024025
:1017F00002682A4B9A4200D0704770B586B003F554
:1018000050435A6C42F080625A645B6C03F0806310
:101810000093009B1023019302250295002403945A
:1018200004940E26059601A91D4803F0D5FE4EF638
:10183000FF730193029503940494059601A9194836
:1018400003F0CAFEF72301930295039404940596CE
:1018500001A9154803F0C0FE4FF48053019302958F
:10186000039404940923059301A9104803F0B4FEDE
:101870004FF446430193029503940494059601A9FD
:101880000B4803F0A9FE22460521582001F0E2FA98
:10189000582001F00FFB06B070BD00BF006801408A
:1018A00000100240002402400028024000180240BC
:1018B0000020024086B003682B4A934210D0B3F157
:1018C000804F18D0294A934221D0294A934229D0E7
:1018D000284A934231D0284A934239D006B0704703
:1018E000264B5A6C42F001025A645B6C03F0010310
:1018F0000093009BF2E703F50E331A6C42F00102ED
:101900001A641B6C03F001030193019BE6E71B4B78
:101910001A6C42F002021A641B6C03F00203029379
:10192000029BDBE7154B1A6C42F008021A641B6C31
:1019300003F008030393039BD0E7104B1A6C42F0AB
:1019400020021A641B6C03F020030493049BC5E778
:101950000A4B5A6C42F002025A645B6C03F00203B9
:101960000593059BBAE700BF00000140000400405A
:10197000000C004000140040000401400038024008
:1019800070B588B00368224A934204D0214A93423A
:1019900024D008B070BD204B5A6C42F010025A643B
:1019A0005B6C03F010030193019B802303930226D9
:1019B00004960024059406940725079503A9174863
:1019C00003F00AFE4FF40073039304960594069403
:1019D000079503A9124803F0FFFDDAE70E4B5A6C96
:1019E00042F020025A645B6C03F020030293029BD6
:1019F000C023039302230493002305930323069338
:101A00000823079303A9074803F0E6FDC1E700BFD9
:101A10000010014000140140003802400004024060
:101A2000000002400008024008B5FFF79BFD08BD1A
:101A300000B589B000220146362001F00BFA3620AD
:101A400001F038FA154B1A6C42F010021A641B6C44
:101A500003F010030193019B02A903A803F0C8FA45
:101A600003F0A6FA43000E48A0FB03239B0C013BA6
:101A70000C480D4A026040F2E732C2604360002326
:101A80000361836002F0E4FC18B1012009B05DF845
:101A900004FB044802F05EFBF8E700BF0038024098
:101AA00083DE1B433CC700200010004050791379AF
:101AB00043EA002307480B50D07893781B0443EA8D
:101AC0000063507843EA002312781343024A8B5094
:101AD000704700BF4080024044800240016841F2EC
:101AE00018028B5843F400538B507047016841F241
:101AF00018028B5843F002038B50704770B59EB0AC
:101B0000044629B14FF40063C3604FF480438360FF
:101B1000E369002B68D14FF48063079321680B6859
:101B2000374A1A40A368E06803430798034343F425
:101B3000007313430B6023681D68012004F028F92B
:101B400023681D60236840225A6023685D68012075
:101B500004F01EF923685D60236800259D602368FA
:101B6000DD602268936923F0BE031B041B0C43F065
:101B70008003936123689E69012004F009F92368BA
:101B80009E612368DD612368DD69012004F000F9AE
:101B90002368DD61216841F218054B59194A1A4042
:101BA000194B13434B5123685E59012004F0F0F8A0
:101BB00023685E51236803F58053144A1A60236832
:101BC00003F580531D68012004F0E2F8236803F553
:101BD00080531D60A369012B09D062690021204652
:101BE000FFF764FF1EB070BD0023079396E72168DE
:101BF00041F21C028858064B03438B50EDE700BFAF
:101C00000F8120FF233FDEF8040020028020C10264
:101C10004000010010B582B0044600230193026821
:101C2000136843F00803136003681B6801930120E5
:101C300004F0AEF82368019A1A6002B010BD10B526
:101C400082B00446002301930268136843F0040342
:101C5000136003681B680193012004F099F823685E
:101C6000019A1A6002B010BD30B583B0054600235A
:101C70000193026841F21804135943F4801313517D
:101C800003681B590193012004F082F82B68019A24
:101C90001A5103B030BDF0B490F84540012C31D05A
:101CA000012480F84540022480F84440C1620024A9
:101CB00001E0F96001349C4217D265014F194FF4DD
:101CC00080164E5140F2F45606FB0426BE60C669EB
:101CD0001EB94E5946F440064E515D1EAC42E8D244
:101CE000651C01EB4515FD60E4E7026841F2100355
:101CF000D150012380F84430002380F84530184645
:101D0000F0BC70470220FBE7F0B490F84540012C8E
:101D10002ED0012480F84540022480F8444081629E
:101D2000002401E0E96001349C4214D266018D195F
:101D30004FF000478F5144F2F4566E6040F2F45673
:101D400006FB0426AE605E1EB442EBD2661C01EBBD
:101D50004616EE60E7E7026841F20C03D15001231A
:101D600080F84430002380F845301846F0BC7047B6
:101D70000220FBE790F84530012B00F0878001231B
:101D800080F84530022380F8443099B1C36A1A685C
:101D9000002A17DB30B440F2F45291421AD93C4C7D
:101DA000A4FB0124A40A40F2F45202FB141292B1E3
:101DB000013410E0012380F84430002280F84520EF
:101DC00018467047122380F84430002380F84530CD
:101DD000012070470124012C01D0002337E01A684C
:101DE00042F040521A60C36AC1F30C015960C26AE2
:101DF000136843F000431360C36ADB68C36203687F
:101E000041F214029A5812F0040F08D0042141F252
:101E1000140299500268002141F20403D1500123B9
:101E200080F84430002380F84530184630BC7047B5
:101E3000C56A2A6842F080522A6011E0C56A2A68A1
:101E400042F000422A60C26AD268C26201339C42F8
:101E5000D5D9C56A2A6822F040522A60002BE7D003
:101E6000C26A40F2F4555560621E9342E6D1C56ADB
:101E70002A6842F000522A60064A02FB041202F26B
:101E8000F452C56AC2F30C026A60D7E702207047B9
:101E90000BB002AC0CFAFFFF90F84530012B45D097
:101EA000012380F84530022380F8443000210AE005
:101EB000036301228263DB68836204E0826B013288
:101EC0008263DB688362836A1A68002A26DB03293F
:101ED00024D801311A6802F44072B2F5007FE7D0CD
:101EE0001A6812F4407FE9D04363826B0132826347
:101EF000012A11D01A68C2F30D42043AC263026B80
:101F000092680264DB688362012380F84430002316
:101F100080F84530184670470363EBE7012380F8EB
:101F20004430002280F84520184670470220704750
:101F30007047704710B50446036841F214029A587E
:101F400012F0400F11D141F214029B5813F0010F0F
:101F500019D1226841F214034FF48031D150226824
:101F6000D35813F4004F1BD110BDFFF7F3F92268CB
:101F7000402141F21403D150012384F8443000235E
:101F800084F84530E5E7FFF7D3FF2168012341F2EC
:101F900014028B5084F84430002384F84530D8E78D
:101FA0002046FFF7C6FF22684FF4004141F21403B8
:101FB000D150012384F84430002384F84530D3E71E
:101FC000F8B590F84430DBB2822B01D10220F8BD85
:101FD00016460546822380F844300268146904F0EE
:101FE0001C04038ADB029BB21C43890101F4F861E3
:101FF0000C4344F00104146103F0C4FE074614F0DE
:10200000010F10D003F0BEFEC01BB0F5803F02D21E
:102010002B681C69F3E7012385F84430002385F819
:1020200045300320F8BD2B685B699BB23360012308
:1020300085F844300020F8BD90F84430DBB2422BE4
:1020400001D10220704770B50546422380F8443024
:102050000068046904F01C042B8ADB029BB21C4359
:10206000890101F4F8610C4344F0030492B2426127
:102070002B681C6103F086FE064614F0010F10D099
:1020800003F080FE801BB0F5803F02D22B681C69F4
:10209000F3E7012385F84430002385F84530032019
:1020A00070BD012385F84430002070BD70B582B04A
:1020B00000230193002800F00D81044690F844307D
:1020C000002B32D0844B5A6C42F480425A645B6CD1
:1020D00003F480430093009B804B5A6822F4000273
:1020E0005A605A68216A0A435A60236803F580538C
:1020F0001A6842F001021A6003F044FE05462368A4
:1021000003F58052126812F0010F13D003F03AFE6B
:10211000401BB0F5FA7FF2D9032584F84450002320
:1021200084F84530284602B070BD80F84530FFF78E
:10213000B7F8C7E71D6925F01C0502F033FF684BAF
:102140000344684A934256D845F0080523681D6148
:102150004FF4004200212046FFF76EFF054600289D
:1021600061D140F6FF7003F013FE6368002B00F0AE
:10217000918003F007FE064601AA01212046FFF7E1
:102180001FFF03F0FFFD801B41F28833984252D8B5
:10219000019B13F0040FEFD04FF480520021204632
:1021A000FFF74AFF002852D103F0ECFD064601AAD2
:1021B00001212046FFF704FF03F0E4FD801B41F2FC
:1021C000883398424BD8019B13F0200FEFD001AA1F
:1021D00010212046FFF7F4FE00284CD1019B13F09C
:1021E000040F50D04FF40062E26013F0020F4DD0A4
:1021F0000023A3605EE03C4B03443C4A934202D878
:1022000045F00C05A2E73A4B03443A4A93429DD964
:10221000394B0344394A934202D845F0040595E707
:1022200045F0100592E701212046FFF767FC0125E4
:1022300084F8445076E701212046FFF75FFC012334
:1022400084F84430002384F8453003256AE70121EF
:102250002046FFF753FC012584F8445062E7012132
:102260002046FFF74BFC012384F84430002384F818
:102270004530032556E701212046FFF73FFC0125A5
:1022800084F844504EE70022E260AEE74FF480430A
:10229000A3600FE0E368C3F3CF02A368C3F34F0367
:1022A0001A4300212046FFF7C7FE58B940F6FF70D9
:1022B00003F06EFD00212046FFF720FC012384F887
:1022C00044302FE701212046FFF718FC012584F850
:1022D000445027E7012525E7003802400038014037
:1022E00000D3CEFEBFE1E40040F1E9FD3F787D017F
:1022F00000796CFCFF596202001F0AFA7FF0FA02B3
:1023000038B590F84530012B01D1022038BD044684
:10231000012580F84550022380F84430FFF77AFC0D
:102320002046FFF78CFC2046FFF79EFC2046FFF777
:10233000D5FB2046FFF7DAFB84F84450002084F8F0
:10234000450038BDF8B50668346A04F00F07C4F3D9
:102350004343C4F30A14022B2ED16CB307EB87025C
:10236000D3000344596C39B305462246304600F089
:1023700053FCBA003A44D3002B445A6C22445A64AA
:10238000DA6C2244DA6406EB4713D3F810150B4AD3
:102390000A408AB1D3F8002522F0804242F0004280
:1023A000C3F80025BB00D919CA002A4492F850305E
:1023B00083F0010382F85030F8BD00BF0000F81F21
:1023C00030B583B005460468D4F840340193D4F89E
:1023D00040340093009B23F02E030093019B13F0E5
:1023E000020F07D0019B13F0010F28D1009B43F08F
:1023F00002030093019B13F0080F13D0009B43F0DE
:1024000008030093019B13F0040F34D0AB69022B37
:102410001CD0EB68032B29D02846FFF730F828465C
:10242000FFF71BF8019B13F0200F03D0009B43F034
:1024300020030093009BC4F8403403B030BDA3696F
:1024400023F00053A361FFF708F8CFE7019B03F4E3
:10245000C023B3F5802F04D00121286800F0F8FBD9
:10246000DAE70221286800F0F3FBD5E74EF6602298
:10247000C4F80424D0E72846FFF707F8D4F840341E
:1024800023F02E03C4F840342A68936943F00053C4
:102490009361C7E7F8B506460D46076807EB411795
:1024A00007F5A064A36813F0040F37D00423A360DA
:1024B000E36843F00203E360A36813F4007F63D191
:1024C000A36813F0010F00F0888033694BB1AA00B4
:1024D0002A44D30033449A6C2169C1F31201521A81
:1024E000DA64AA002A44D3003344012283F85D2031
:1024F00000219965A26093F83F30022B18BF8B42F0
:102500004ED0032B57D0AB005919CA00324492F871
:10251000503083F0010382F85030F8BDA36813F007
:10252000200F02D02023A360C6E7A36813F0080F92
:1025300017D1A36813F4806FBED0E36843F00203A1
:10254000E360006800F0CCFB1023A36005EB85027C
:10255000D3003344082283F85D204FF48063A360E6
:10256000AAE7E36843F00203E36001EB8102D300D2
:102570000344052283F85D201023A3600823A36091
:10258000006800F0ADFB97E7E36843F00203E36007
:102590002946306800F0A4FB4FF40073A360F8BD37
:1025A000E36843F00203E3602946306800F098FBDB
:1025B0001023A360A7E7D7F8003543F00053C7F80E
:1025C000003505EB8502D3003344012283F85C20FB
:1025D00029463046FEF74DFF95E7A36813F0020F3A
:1025E00062D0E36823F00203E36005EB8502D300C9
:1025F000334493F85D30012B20D0052B32D0082BCB
:1026000018BF062B3ED1AA002A44D30033449A6D4A
:1026100001329A65032A2DD9AA002A44D3003344F3
:1026200000229A65042283F85C20D7F8003523F055
:10263000804343F00043C7F8003506E005EB850210
:10264000D3003344012283F85C200223A36005EB0E
:102650008502D300334493F85C2029463046FEF7C8
:1026600008FFF8BD05EB8502D3003344052283F84B
:102670005C20EAE705EB8502D3003344022283F8AD
:102680005C20D2E7032BE0D105EB8502D300334475
:10269000022283F85C20D7F8003523F0804343F012
:1026A0000043C7F80035D0E7A36813F0800F1AD1B4
:1026B000A36813F0100F15D005EB8502D300334447
:1026C00093F83F30032B26D0022B18BF002B07D1E5
:1026D00005EB8502D300334400229A6533694BB37E
:1026E0001023A360F8BDE36843F00203E360AB008E
:1026F0005919CA003244916D013191652B44DA00B9
:102700003244062382F85D302946306800F0E8FA4A
:102710008023A360F8BD05EB8502D300334400227B
:102720009A65E36843F00203E3602946306800F0ED
:10273000D7FAD5E705EB8502D3003344032283F8AB
:102740005D20E36843F00203E3602946306800F04F
:10275000C7FAC5E7F8B5036803EB411303F5A064B6
:10276000A26812F0040F11D10E460546A26812F0BD
:10277000200F26D02023A36001EB8102D3001A464C
:10278000034493F83D30012B07D0F8BD0423A36028
:10279000E36843F00203E360F8BD8B0002440021CC
:1027A00082F83D103344DA000244022382F85C30A0
:1027B000E36843F00203E3603146006800F090FAFA
:1027C000F8BDA26812F0400F34D1A26812F4007F65
:1027D0004AD1A26812F0010F51D1A26812F0080F7D
:1027E00062D1A26812F0100F6FD08A000A44D300A1
:1027F000034400229A65032283F85D2093F83D305C
:102800006BB901EB8102D300034493F83C3033B938
:1028100001EB8102D3000344012283F83D20E368E9
:1028200043F00203E3603146286800F059FA1023B0
:10283000A360F8BD8B005918CA000244042182F835
:102840005D10012182F83D103344DA000244002378
:102850009365E36843F00203E3603146006800F0EB
:102860003FFA4023A360F8BDE36843F00203E3604E
:10287000006800F035FA4FF40073A360F8BD8F00D4
:102880007A18D300034400229A65E36843F00203F8
:10289000E360006800F024FA0123A360B919C800BE
:1028A000284480F85D30F8BD0823A360E36843F056
:1028B0000203E360006800F013FA06EB8601C8002B
:1028C0002844052380F85D30F8BDA26812F0800F1F
:1028D0003AD1A26812F4806F47D1A26812F0020FB9
:1028E0003FF453AFE26822F00202E26001EB8101A3
:1028F000CA001146024492F85D20012A49D0032AF9
:1029000066D0042A6CD0052A72D0082A18BF062A7D
:1029100048D1B1003144CA000244916D0131916542
:1029200003296DD9B1003144CA00024400219165E8
:10293000042182F85C10D3F8002522F0804242F096
:102940000042C3F800252DE0E36843F00203E36092
:10295000006800F0C5F906EB8601CB002B44062287
:1029600083F85D208023A360F8BDE36843F0020391
:10297000E360006800F0B4F91023A3604FF48063B3
:10298000A36006EB8601CB002B44082283F85D2070
:10299000F8BD0B460344012283F85C2093F83F30D6
:1029A000022B0CD00223A36006EB8602D3002B443B
:1029B00093F85C2031462846FEF75BFDE5E60B46C2
:1029C000034493F8512082F0010283F85120E9E793
:1029D00006EB8602D3000344022283F85C20E1E781
:1029E00006EB8602D3000344022283F85C20D9E779
:1029F00006EB8602D3000344052283F85C20D1E76E
:102A000006EB8601CA000244022182F85C1092E7BC
:102A1000F8B504460568284600F016F9012800D0EC
:102A2000F8BD206800F00CF90028F9D0206800F00B
:102A300007F910F4001F03D023684FF400125A6105
:102A4000206800F0FDF810F4801F03D023684FF4D5
:102A500080125A61206800F0F3F810F0806F03D004
:102A600023684FF080625A61206800F0E9F810F0A6
:102A7000020F02D0236802225A61206800F0E0F8B9
:102A800010F0005F28D1206800F0DAF810F0807FA5
:102A900034D1206800F0D4F810F0080F32D120684B
:102AA00000F0CEF810F0007F33D1206800F0C8F8B5
:102AB00010F0100F53D00123002BB1D0226893697E
:102AC00023F0100393612046FFF73CFC22689369D2
:102AD00043F010039361A3E7D5F8403423F02E03AD
:102AE000C5F840342046FEF7BEFC0121206800F006
:102AF000AFF823684FF000525A61C4E72046FFF751
:102B00005FFCC6E72046FEF7A2FC236808225A6154
:102B1000C5E7206800F0DFF80746002604E0F1B2C0
:102B20002046FFF717FE0136A3689E4212D206F038
:102B30000F0327FA03F313F0010FF4D005EB46134C
:102B4000D3F8003513F4004FE9D0F1B22046FFF777
:102B5000A1FCE8E723684FF000725A61A5E7002363
:102B6000AAE738B590F8B832012B01D1022038BD60
:102B70000446012580F8B852006800F01AF829468A
:102B8000206800F085F8002084F8B80238BD90F87D
:102B9000B832012B01D10220704710B50446012341
:102BA00080F8B832006800F004F9002084F8B80218
:102BB00010BD836843F00103836000207047836881
:102BC00023F001038360002070470000890141F079
:102BD0002001016100230133054A934205D80269AF
:102BE00012F0200FF7D1002070470320704700BF7C
:102BF000400D03001023036100230133054A934273
:102C000005D8026912F0100FF7D100207047032099
:102C1000704700BF400D0300033292080023934227
:102C20000CD210B400F58054246841F8044B0133F1
:102C30009342F7D308465DF8044B70470846704747
:102C40004269806910407047406900F00100704798
:102C500010B400F58064D0F8003423F00303C0F80A
:102C60000034D0F8003401F003021343C0F80034FC
:102C7000012905D0022907D000205DF8044B7047D8
:102C80004BF680336360F7E741F270736360F3E7FC
:102C900082B000230193D0F840340193019B23F0CC
:102CA0002E030193019B13F4805F01D101290CD005
:102CB000019B13F4805F05D021B9019B23F480535D
:102CC000C0F84034002002B07047019B43F48053A9
:102CD000C0F84034ECE700F58060406980B270478E
:102CE00010B400EB411101F5A064D1F80035C3F335
:102CF0008143022B18BF002B2BD1D1F8003543F0B4
:102D00008043C1F80035C36A13F47F0F1AD1D1F89C
:102D1000003523F00043C1F80035D1F8003543F009
:102D20000043C1F80035D1F8003523F40043C1F861
:102D3000003500230133B3F57A7F36D82268002AA4
:102D4000F8DB32E0D1F8003543F00043C1F800353C
:102D50002BE0D1F8003543F08043C1F80035D0F8BE
:102D6000103413F47F0F1AD1D1F8003523F000434B
:102D7000C1F80035D1F8003543F00043C1F8003503
:102D8000D1F8003523F40043C1F8003500230133A6
:102D9000B3F57A7F09D82268002AF8DB05E0D1F87C
:102DA000003543F00043C1F8003500205DF8044BC6
:102DB000704770B505460446FFF701FF102128460D
:102DC000FFF704FF2846FFF715FF00220AE004EB97
:102DD0004211D1F8003523F0802343F08043C1F83D
:102DE000003501320F2AF2D90020034600E00130FD
:102DF0000F2813D804EB401606F5A061D6F800257D
:102E000022F4004242F04042C6F800250133B3F5F7
:102E10007A7FECD80A68002AF8DBE8E74FF0FF3346
:102E2000C5F814346B612846FFF7C3FE002070BD5F
:102E30000649CB6823F4E0631B041B0C000200F47A
:102E4000E0600343024A1A43CA60704700ED00E0A5
:102E50000000FA0530B4144BDB68C3F30223C3F15E
:102E60000704042C28BF04241D1D062D13D9033B81
:102E7000012505FA04F4013C2140994005FA03F3C9
:102E8000013B13401943002807DB0901C9B2074B76
:102E9000195430BC70470023EAE700F00F00090125
:102EA000C9B2034B1954F4E700ED00E000E400E080
:102EB00014ED00E0420900F01F00012303FA00F0C6
:102EC000014B43F82200704700E100E00138B0F107
:102ED000807F0AD2064B5860F021064A82F8231000
:102EE0000020986007221A6070470120704700BFD9
:102EF00010E000E000ED00E0042805D0054A13686A
:102F000023F0040313607047024A136843F004037C
:102F10001360704710E000E070B40668746C04F051
:102F20004044039D45EA03431C4374640368DA6329
:102F30004368B3F5403F03D00368D96070BC704765
:102F400001F07F4601F47F0301F47F45CAB2846833
:102F50007CB1012C10D0022C11D0032C17D0360FCD
:102F6000190D2D0B090241EA051141EA063141EA2A
:102F7000121103689963E1E721F07F41F9E7DB0C67
:102F8000AD0AD90241EA451141EAD201F1E7F60F53
:102F9000DB0CED0A990241EA451141EAC63141EAEA
:102FA000D201E6E738B310B5044690F83930EBB1FA
:102FB000022384F839302268136823F440336168AF
:102FC0000B4313602268536B23F00703A1680B4384
:102FD00053632268116C094B0B40E1680B43136487
:102FE0000020E063012384F8393010BD80F83830C8
:102FF000FEF76AFBDCE70120704700BF00C0FFFF5F
:1030000010B582B090F83840012C02D1022002B0F5
:1030100010BD0446012084F83800022084F83900ED
:10302000049800902046FFF777FF2268136843F06A
:10303000010313600020EAE770B582B004460D4634
:103040000023019303681B6813F0010F2AD1236842
:10305000DA6912F0200F03D15B6A13F0200F7FD0E2
:1030600002F090FE064623685A6812F0100F77D1DE
:103070005A680192019A12F0290F4FD1B5F1FF3F22
:10308000F1D025B102F07EFE801B8542EBD2E36BCE
:1030900043F02003E363032084F83900002384F81D
:1030A000383066E002F06EFE064623685A6812F079
:1030B000020FCCD15A680192019A12F0210F13D15C
:1030C000B5F1FF3FF1D025B102F05CFE801B8542D7
:1030D000EBD2E36B43F02003E363032084F8390071
:1030E000002384F8383044E0019A12F0200F03D016
:1030F000E26B42F00202E263019A12F0010F03D088
:10310000E26B42F00102E26321229A60042384F818
:103110003930002384F8383001202AE0019A12F077
:10312000080F03D0E26B42F00402E263019A12F04E
:10313000200F03D0E26B42F00202E263019A12F028
:10314000010F03D0E26B42F00102E26329229A6090
:10315000042384F83930002384F83830012008E053
:10316000236812229A60012384F83930002084F801
:10317000380002B070BD7047704770B504460368F0
:103180005D681E6815F0010F16D016F4807F13D00D
:103190001A6822F480721A60C36B43F00103C363A0
:1031A000036801229A60042380F83930002380F8F4
:1031B0003830436903B1984715F0200F18D016F442
:1031C000005F15D02268136823F40053136023684E
:1031D00020229A60E36B43F00203E363042384F844
:1031E0003930002384F8383063690BB120469847A2
:1031F00015F0080F18D016F4006F15D02268136868
:1032000023F400631360236808229A60E36B43F0A1
:103210000403E363042384F83930002384F838304E
:1032200063690BB12046984715F0040F02D016F4DD
:10323000806F20D115F0020F16D016F4007F13D046
:103240002268136823F400731360236802229A60D3
:10325000E36BE363012384F83930002384F83830CA
:1032600023690BB12046984715F0100F02D016F4D1
:10327000805F0CD170BD2268136823F480631360F3
:10328000236804229A602046FFF775FFD2E7226880
:10329000136823F480531360236810229A60E36B51
:1032A000E363012384F83930002384F83830204662
:1032B000FFF762FFDEE7000090F83830012B59D0AD
:1032C00030B4012380F83830022380F8393000EB25
:1032D0000113DA698B1C1B01C35842EA0343093A04
:1032E000012A1ED98A1C00EB0212526843EA0263CB
:1032F00041BB0468656A204A2A401343636202683E
:1033000000EB01139C699461DB69093B012B10D927
:10331000012380F83930002380F83830184630BC5B
:1033200070478A1C00EB0212526802F07F4213437E
:10333000DEE70268023100EB01114B6823F07F43A6
:103340009362E5E70468E5690B4A2A401343E361A9
:10335000026800EB01139C691461DB69093B012BD6
:10336000D6D80268023100EB01114B6823F07F438D
:103370001362CDE702207047F0FFFC0030B40B6809
:10338000012B18D00368194A1A404B688C682343F4
:10339000CC6823430C6923434C6923438C69234342
:1033A000CC6923430C6A2343496A0B4313430360EC
:1033B000002030BC7047046824F4F844CB690A6AE2
:1033C00013434A6A13431C434368084A1A404B6834
:1033D0008D682B43CD682B430D692B434D692B43DF
:1033E00089690B43134304604360E1E70080FFFFFA
:1033F00030B4012A21D0826802F070420B68013B90
:103400004C68013C43EA04138C68013C43EA042302
:10341000CC68013C43EA04330C69013C43EA0443B1
:103420004C69013C43EA04538969013943EA016369
:1034300013438360002030BC70478368114C1C40EC
:10344000CB685A1E4B69013B1B0543EA02331C4300
:10345000C26802F070420B68013B4D68013D43EACF
:1034600005138D68013D43EA05230D69013D43EADB
:1034700005438969013943EA016313438460C360EA
:10348000D8E700BFFF0F0FFF10B483B00446002041
:1034900001900B684A6813438A68013A43EA421371
:1034A000CA6843EA42230193019B236103B05DF89C
:1034B000044B7047436943EA410141610020704772
:1034C000D8B138B504460D4690F82C3083B10223AC
:1034D00084F82C30211D2068FFF750FF62682946D0
:1034E0002068FFF785FF012384F82C30002038BDC9
:1034F00080F82D30FEF798FAE9E70120704738B5DB
:1035000090F82C30DBB2022B01D1022038BD0D46E1
:103510000446022380F82C300068FFF7B5FF2B68C3
:10352000022B04D0012384F82C30002038BD052361
:1035300084F82C30002038BD90F82C30DBB2022B00
:1035400001D10220704710B50446022380F82C30C8
:103550000068FFF7AFFF012384F82C30002010BD76
:1035600003689A6912F0020F01D000229A62036880
:103570009A6912F0010F03D19A6942F001029A612F
:10358000704770B4039D066870686C0D04F4806425
:1035900044F07F7444F4583444F47F7444F00304DA
:1035A00020EA0400C1F3090141EA02411943294319
:1035B0000843706070BC704770B504460D461646EF
:1035C00003689B6913F0100F17D023689A6912F0F3
:1035D000200F14D1B5F1FF3FF7D025B102F0D2FB97
:1035E000801B8542F1D2202384F84130002384F8E7
:1035F000423084F84030032070BD002070BD10229E
:10360000DA6123682025DD612046FFF7A9FF2268E3
:10361000536823F0FF7323F48B3323F4FF7323F0F9
:10362000010353600423636484F84150002384F849
:10363000423084F84030012070BD70B504460D461C
:10364000164623689B6913F0020F1CD132462946A7
:103650002046FFF7B1FFC0B9B5F1FF3FF1D025B16A
:1036600002F090FB801B8542EBD2636C43F0200399
:103670006364202384F84130002384F8423084F8C6
:103680004030032070BD002070BD012070BDF8B532
:1036900005460F4616461C462B689B6937EA03030E
:1036A0000CBF01230023B34213D1B4F1FF3FF3D089
:1036B0002CB102F067FB069BC01A8442ECD2202397
:1036C00085F84130002385F8423085F840300320EA
:1036D000F8BD0020F8BD000070B582B00446164663
:1036E0001D461E4B00934FF08073EAB2FFF749FF6F
:1036F000079A06992046FFF7A0FF40B1636C042BA0
:1037000003D00323184602B070BD0123FAE7012D50
:103710000DD02368320A9A62079A06992046FFF76D
:103720008CFFB0B1636C042B11D00323EAE723684C
:10373000F6B29E62079B0093069B002280212046E2
:10374000FFF7A5FF03460028DCD00323DAE70123B7
:10375000D8E72368F6B29E62ECE700BF0020008045
:1037600070B582B0044616461D461D4B00930023DB
:10377000EAB2FFF706FF079A06992046FFF75DFFBA
:1037800040B1636C042B03D00323184602B070BD14
:103790000123FAE7012D0DD02368320A9A62079AB5
:1037A00006992046FFF749FFB0B1636C042B11D096
:1037B0000323EAE72368F6B29E62079B0093069B09
:1037C000002240212046FFF762FF03460028DCD09C
:1037D0000323DAE70123D8E72368F6B29E62ECE719
:1037E0000020008070B505460C4616462B689B6984
:1037F00013F0200F19D1324621462846FFF7DCFE90
:10380000A8B924B102F0BEFA801B8442EED26B6CE0
:1038100043F020036B64202385F84130002385F8B2
:10382000423085F84030032070BD002070BD01207B
:1038300070BD0000002857D010B5044690F8413004
:10384000002B41D0242384F841302268136823F0F0
:10385000010313602268636823F0706313612268B8
:10386000936823F400439360E368012B31D022680E
:10387000A36843F404439360E368022B2FD02268CB
:1038800051681A4B0B4353602268D36823F40043FA
:10389000D3602268236961690B43A16943EA01236C
:1038A000D3602268E369216A0B43136022681368BE
:1038B00043F00103136000206064202384F841304A
:1038C000206384F8420010BD80F84030FDF71CFFF3
:1038D000B8E72268A36843F400439360CCE7236809
:1038E0004FF400625A60CAE701207047008000026E
:1038F000A8B110B50446242380F84130026813684B
:1039000023F001031360FDF749FF0020606484F891
:103910004100206384F8420084F8400010BD01207B
:1039200070472DE9F04782B0BDF82C5090F8414027
:10393000E4B2202C04D00223184602B0BDE8F08780
:103940000A9C002D18BF002C00F0C98090F8404060
:10395000012C01D10223EFE7984691460E4604461A
:103960004FF0010A80F840A002F00CFA07460090E0
:10397000192352464FF400412046FFF788FE08B154
:103980000323D9E7212384F84130402384F84230CF
:10399000002363640A9A62626585636301970C9BE6
:1039A000009343464A4631462046FFF795FE60B1F4
:1039B000636C042B04D0002384F840300323BBE75E
:1039C000002384F840305346B6E7638D9BB2FF2B4B
:1039D0000AD9FF222285002300934FF080733146DD
:1039E0002046FFF7CEFD23E0628D92B222850023B0
:1039F00000934FF00073D2B231462046FFF7C1FD6D
:103A000016E0636C042B01D0032395E7012393E7B1
:103A1000628D92B22285002300934FF00073D2B2E0
:103A200031462046FFF7ADFD638D9BB2002B32D0AF
:103A30003A460C992046FFF700FE0028E1D12268A3
:103A4000636A591C61621B789362638D9BB2013B70
:103A50009BB26385238D013B9BB22385002BE3D171
:103A6000638D9BB2002BDFD000970C9B002280213E
:103A70002046FFF70CFEA0BB638D9BB2FF2BC7D97E
:103A8000FF222285002300934FF0807331462046A9
:103A9000FFF777FDC8E73A460C992046FFF7A2FEEC
:103AA000034630B1636C042B01D0032344E70123A8
:103AB00042E722682021D1612068426822F0FF722B
:103AC00022F48B3222F4FF7222F00102426084F869
:103AD0004110002284F8422084F840202CE7012382
:103AE0002AE7032328E700002DE9F04782B0BDF85C
:103AF0002C5090F84140E4B2202C04D00223184608
:103B000002B0BDE8F0870A9C002D18BF002C00F021
:103B1000C48090F84040012C01D10223EFE7984681
:103B200091460E4604464FF0010A80F840A002F08C
:103B300029F907460090192352464FF400412046C8
:103B4000FFF7A5FD08B10323D9E7222384F841300C
:103B5000402384F84230002363640A9A62626585D8
:103B6000636301970C9B009343464A4631462046C7
:103B7000FFF7F6FD60B1636C042B04D0002384F8DA
:103B800040300323BBE7002384F840305346B6E7B8
:103B9000638D9BB2FF2B0AD9FF222285424B0093F3
:103BA0004FF0807331462046FFF7EBFC1CE0628D3E
:103BB00092B222853C4B00934FF00073D2B2314653
:103BC0002046FFF7DEFC0FE0628D92B222850023D3
:103BD00000934FF00073D2B231462046FFF7D1FC7C
:103BE000638D9BB2002B34D000970C9B00220421E4
:103BF0002046FFF74CFD002851D1636A5A1C6262CF
:103C00002268526A1A70228D013A92B22285638D1F
:103C10009BB2013B9BB26385002AE1D1638D9BB2CD
:103C2000002BDDD000970C9B80212046FFF72FFD55
:103C3000002836D1638D9BB2FF2BC5D9FF22228588
:103C4000002300934FF0807331462046FFF799FC24
:103C5000C6E73A460C992046FFF7C4FD034630B14B
:103C6000636C042B01D0032349E7012347E7226853
:103C70002021D1612068426822F0FF7222F48B3249
:103C800022F4FF7222F00102426084F84110002207
:103C900084F8422084F8402031E701232FE70323F2
:103CA0002DE703232BE700BF0024008090F841009C
:103CB00070470000F0B54D680468E368C3F30B4338
:103CC0001D44D2011444D4F8883003F47043C4F87E
:103CD0008830066894190B68F668C6F30B463344BF
:103CE000013343EA0543C4F88830CD680468E368CB
:103CF000C3F30A031D441444D4F88C3003F4704316
:103D0000C4F88C30066894198B68F668C6F30A0606
:103D10003344013343EA0543C4F88C300368134449
:103D2000D3F8944024F00704C3F894400368134484
:103D30000C69C3F8944091F831E091F832708E69C3
:103D400005681544D5F89C300024C5F89C400568EA
:103D5000154491F8303043EA0E2343EA074343EA1F
:103D60000663C5F89C3003681344D3F8985025F0D7
:103D7000FF05C3F89850036813444D69C3F8985081
:103D800003681344D3F8A0602C4D3540C3F8A0500D
:103D900003681344CD690E6A3543C3F8A050036825
:103DA0001344D3F8AC50C3F8AC40036813444C6AD6
:103DB000C3F8AC400B696BB1012B39D0022B18BF93
:103DC000042B37D0032B37D0072B01D0012602E07C
:103DD000022600E0042604681444D4F8B03003F04E
:103DE000E023C4F8B030046814448D6A05FB06F57E
:103DF0004B680F68DB1B03FB06F3033343EA054301
:103E0000C4F8B03003681344D3F8B4500C4C2C40C1
:103E1000C3F8B44003681344C96AC3F8B410036814
:103E20001A44D2F8843043F00103C2F88430F0BD64
:103E30000326D0E70226CEE70226CCE7F8F8FFFFFC
:103E400000F8FFFF002877D038B5044690F8A1307D
:103E5000002B6CD0022384F8A1302268936923F0F0
:103E60007043936121688A696368A0680343E068CE
:103E700003432069034313438B6121688A682F4BF6
:103E80001A408A60656920688268A16941EA054133
:103E90000A4382602168CA681A40CA60E5692068DE
:103EA000C268216A41EA05410A43C26021680A6981
:103EB0001A400A61656A20680269A16A41EA0541FF
:103EC0000A43026121684A6913404B61E06A216834
:103ED0004B69226B42EA004213434B6194F8350070
:103EE00094F836301B042168CA6A02F07F42CA6225
:103EF0002168CA6A43EA002394F834000343134359
:103F0000CB622268536B43F0040353632268536B04
:103F100043F0020353632268936943F00103936102
:103F20000020C4F8A400012384F8A13038BD80F833
:103F3000A030FDF75DFC8DE70120704700F800F030
:103F400070477047704710B5044603689A6B12F0CB
:103F5000040F03D09A6B12F0040F1BD123689A6BE5
:103F600012F0020F03D09A6B12F0020F27D12368D0
:103F70009A6B12F0010F03D09A6B12F0010F34D13B
:103F800023689A6B12F0080F03D09A6B12F0080F97
:103F90003BD110BD5A6B22F004025A63036804221D
:103FA000DA63D0F8A43043F00103C0F8A43080F8FD
:103FB000A120002380F8A030FFF7C2FFCEE75A6BA4
:103FC00022F002025A6323680222DA63D4F8A43092
:103FD0001343C4F8A430042384F8A130002384F8E8
:103FE000A0302046FFF7ACFFC1E75A6B22F0010278
:103FF0005A6322680123D36384F8A130002384F834
:10400000A0302046FFF79DFFBAE75A6B22F0080266
:104010005A6323680822DA63012384F8A13000235D
:1040200084F8A0302046FFF78DFFB2E790F8A0306B
:10403000012B01D1022070472DE9F04196460F4631
:1040400006464FF0010880F8A080022380F8A130D6
:10405000342404FB020438340D460FCD0FC40FCDB9
:104060000FC40FCD0FC42B6823607246394630460B
:10407000FFF720FE3368C3F8248086F8A180002073
:1040800086F8A000BDE8F08190F8A030012B1DD08B
:1040900030B4012480F8A040022380F8A1300368E6
:1040A000D2011344D3F8905005F07F45C3F89050E7
:1040B00003681A44C2F8901003685C6280F8A1405B
:1040C000002380F8A030184630BC704702207047AB
:1040D00090F8A030012B17D0012280F8A0200223F5
:1040E00080F8A130036803EBC111D1F8843043F0AC
:1040F0000203C1F8843003685A6280F8A1200023CB
:1041000080F8A030184670470220704738B590F804
:10411000A030012B01D1022038BD0446012580F8D2
:10412000A050022380F8A130342303FB02F303F1F3
:1041300038002344D96421182046FFF7BBFD2368CB
:104140005D6284F8A150002084F8A00038BD90F88A
:10415000A10070470268D36843F00103D36002688E
:10416000136843F0010313600020704770477047E5
:104170007047704710B5044603681A6912F0020FC1
:1041800011D0DA6812F0020F0DD06FF002021A613E
:104190000123037703689B6913F0030F79D0FFF7BE
:1041A000E6FF0023237723681A6912F0040F12D068
:1041B000DA6812F0040F0ED06FF004021A610223C5
:1041C000237723689B6913F4407F68D02046FFF76C
:1041D000CEFF0023237723681A6912F0080F12D04C
:1041E000DA6812F0080F0ED06FF008021A6104238B
:1041F00023772368DB6913F0030F57D02046FFF7BE
:10420000B6FF0023237723681A6912F0100F12D02B
:10421000DA6812F0100F0ED06FF010021A61082346
:1042200023772368DB6913F4407F46D02046FFF7ED
:104230009EFF0023237723681A6912F0010F03D031
:10424000DA6812F0010F3FD123681A6912F0800F6B
:1042500003D0DA6812F0800F3DD123681A6912F496
:10426000807F03D0DA6812F0800F3BD123681A698F
:1042700012F0400F03D0DA6812F0400F39D12368F2
:104280001A6912F0200F03D0DA6812F0200F37D12C
:1042900010BDFFF76BFF2046FFF76AFF81E720465E
:1042A000FFF764FF2046FFF763FF92E72046FFF722
:1042B0005DFF2046FFF75CFFA3E72046FFF756FFB0
:1042C0002046FFF755FFB4E76FF001021A61204660
:1042D000FCF706FDB8E76FF080021A61204600F097
:1042E000D1F8BAE76FF080021A61204600F0CAF8F0
:1042F000BCE76FF040021A612046FFF73AFFBEE7C5
:104300006FF020021A61204600F0BBF8C0E7000001
:1043100070B40368474A904214BF00220122B0F1F2
:10432000804F14BF144642F00104D4B9424DA84254
:1043300014BF00250125414EB04254D0002D52D16A
:1043400005F1804505F58235A84214BF00250125F9
:1043500006F50066B04202D00DB9002502E0012545
:1043600000E001251DB123F070034D682B43002CA4
:104370003DD1314CA04214BF002401242F4DA8424E
:1043800050D0002C4ED104F1804404F58234A04278
:1043900014BF0024012405F50065A84244D0002C78
:1043A00042D1274CA04214BF0024012405F59A35C0
:1043B000A8423BD0002C39D1224CA04214BF00248B
:1043C000012405F50065A84232D0002C30D11E4CE6
:1043D000A04214BF00240124A5F59635A84204D0BC
:1043E0001CB9002404E00125BCE7012400E00124FD
:1043F0001CB123F44073CC68234323F080034C6941
:10440000234303608B68C3620B6883620F4B98423F
:1044100008BF42F001020AB10B6903630123436143
:1044200070BC70470124E3E70124E1E70124DFE7E2
:104430000124DDE7000001400008004000040040C6
:1044400000440140001800400020004000040140EA
:10445000A8B110B5044690F83D305BB1022384F852
:104460003D30211D2068FFF753FF012384F83D30C4
:10447000002010BD80F83C30FDF71CFAEEE701206B
:104480007047704770472DE9F04105460F461646C4
:104490009846069C2B68DB6937EA03030CBF0123AF
:1044A0000023B3421ED1B4F1FF3FF3D02CB101F091
:1044B00069FCA0EB08008442ECD82A68136823F456
:1044C000D07313602A68936823F00103936020235C
:1044D00085F8693085F86A30002385F86830032054
:1044E000BDE8F0810020BDE8F081000038B5044649
:1044F00083680269134342691343C2691343016825
:104500000868A04A024013430B602268536823F4F2
:104510004053E1680B435360A369226A1343216847
:104520008A6822F4306213438B602568964B9D4263
:104530002BD0964B9D423CD0954B9D4252D0954BF3
:104540009D4267D0944B9D427CD0944B9D4200F09D
:104550009480934B9D4200F0AB80924B9D4200F0C3
:10456000C2801023E269B2F5004F00F0DB80082B17
:1045700000F26881DFE813F031013C014701660178
:1045800051016601660166015C0103F59433D3F8BD
:10459000903003F00303032B03D8DFE803F0BF06DA
:1045A00004081023DEE70223DCE70423DAE708230C
:1045B000D8E703F5FA33D3F8903003F00C030C2B53
:1045C00008D8DFE803F0AD0707070B07070709075F
:1045D00007070D001023C5E70223C3E70423C1E743
:1045E0000823BFE703F5F833D3F8903003F0300326
:1045F000102B0DD005D9202B08D0302B04D1082347
:10460000B0E70BB90023ADE71023ABE70223A9E71E
:104610000423A7E703F5F633D3F8903003F0C00383
:10462000402B0DD005D9802B08D0C02B04D10823F6
:1046300098E70BB9002395E7102393E7022391E74E
:1046400004238FE703F5F433D3F8903003F4407379
:10465000B3F5807F0FD007D9B3F5007F09D0B3F54C
:10466000407F04D108237DE70BB900237AE71023AC
:1046700078E7022376E7042374E703F59233D3F84F
:10468000903003F44063B3F5806F0FD007D9B3F5D2
:10469000006F09D0B3F5406F04D1082362E70BB96E
:1046A00001235FE710235DE702235BE7042359E75B
:1046B00003F5E033D3F8903003F44053B3F5805F53
:1046C0000FD007D9B3F5005F09D0B3F5405F04D12F
:1046D000082347E70BB9002344E7102342E70223EE
:1046E00040E704233EE703F5DE33D3F8903003F4CC
:1046F0004043B3F5804F0FD007D9B3F5004F09D031
:10470000B3F5404F04D108232CE70BB9002329E768
:10471000102327E7022325E7042323E7012321E7CA
:1047200000231FE7082B55D8DFE803F005172254B4
:10473000405454544B0000F03BFC6268530803EBB8
:104740004003B3FBF2F39BB2002023F00F02C3F34C
:10475000420313432268D36038BD00F039FC62681D
:10476000530803EB4003B3FBF2F39BB20020ECE7EA
:1047700062680D4B03EB5203B3FBF2F39BB20020D4
:10478000E3E700BFF369FFEF001001400044004081
:1047900000480040004C0040005000400014014020
:1047A00000780040007C00400048E80100F0F6FA84
:1047B0006268530803EB4003B3FBF2F39BB20020A3
:1047C000C3E76268530803F58033B3FBF2F39BB28F
:1047D0000020BAE701200023B7E700F0E9FB636897
:1047E00000EB5300B0FBF3F080B2E860002038BD6E
:1047F00000F0EEFB636800EB5300B0FBF3F080B217
:10480000E860002038BD62680F4B03EB5203B3FB36
:10481000F2F39BB2EB60002038BD00F0BFFA636892
:1048200000EB5300B0FBF3F080B2E860002038BD2D
:104830006268530803F50043B3FBF2F39BB2EB60ED
:10484000002038BD012038BD0024F400436A13F075
:10485000010F06D00268536823F40033816A0B43CA
:104860005360436A13F0020F06D00268536823F4C2
:104870008033C16A0B435360436A13F0040F06D0C0
:104880000268536823F48023016B0B435360436A2F
:1048900013F0080F06D00268536823F40043416BFD
:1048A0000B435360436A13F0100F06D002689368FD
:1048B00023F48053816B0B439360436A13F0200F02
:1048C00006D00268936823F40053C16B0B439360D6
:1048D000436A13F0400F0AD00268536823F4801330
:1048E000016C0B435360036CB3F5801F0BD0436A1C
:1048F00013F0800F06D00268536823F40023816C04
:104900000B43536070470268536823F4C003416C43
:104910000B435360EBE710B582B004460023C36637
:1049200001F030FA2268126812F0080F09D1202332
:1049300084F8693084F86A30002084F8680002B096
:1049400010BD6FF07E430093034600224FF4001128
:104950002046FFF798FD0028E9D00320EFE778B361
:1049600010B5044690F869300BB3242384F86930FD
:104970002268136823F0010313602046FFF7B6FD99
:1049800001281FD0636ABBB92268536823F490439F
:1049900053602268936823F02A03936022681368A7
:1049A00043F0010313602046FFF7B5FF10BD80F808
:1049B0006830FCF7E5FFD8E72046FFF747FFE3E75D
:1049C0000120704710BD0000002800F0DB8170B5A9
:1049D00082B00446036813F0010F3AD0A24B9B68E3
:1049E00003F00C03042B2BD09F4B9B6803F00C03AC
:1049F000082B20D06368B3F5803F50D0002B54D1F2
:104A0000994B1A6822F480321A601A6822F48022C4
:104A10001A606368002B5FD001F0B4F90546924B31
:104A20001B6813F4003F14D101F0ACF9401B64285B
:104A3000F5D90320ABE18C4B5B6813F4800FD9D020
:104A4000894B1B6813F4003F03D06368002B00F010
:104A50009B81236813F0020F64D0834B9B6813F093
:104A60000C0F4DD0804B9B6803F00C03082B42D0F9
:104A7000E368002B79D07C4A136843F0010313608C
:104A800001F080F90546784B1B6813F0020F63D1E3
:104A900001F078F9401B0228F5D9032077E1724A2A
:104AA000136843F480331360B3E7B3F5A02F09D044
:104AB0006D4B1A6822F480321A601A6822F4802240
:104AC0001A60A6E7684B1A6842F480221A601A68D6
:104AD00042F480321A609CE701F054F90546624BBB
:104AE0001B6813F4003FB4D001F04CF9401B64285C
:104AF000F5D903204BE15C4B5B6813F4800FB7D111
:104B0000594B1B6813F0020F04D0E368012B01D04E
:104B100001203CE1544A136823F0F803216943EA79
:104B2000C1031360236813F0080F46D0636983B391
:104B30004D4A536F43F00103536701F023F90546D3
:104B4000494B5B6F13F0020F37D101F01BF9401B8B
:104B50000228F5D903201AE1434A136823F0F80329
:104B6000216943EAC1031360DCE73F4A136823F07D
:104B70000103136001F006F905463B4B1B6813F077
:104B8000020FCFD001F0FEF8401B0228F5D9032018
:104B9000FDE0354A536F23F00103536701F0F2F84B
:104BA0000546314B5B6F13F0020F06D001F0EAF8B7
:104BB000401B0228F5D90320E9E0236813F0040F15
:104BC0007ED0294B1B6C13F0805F31D1264B1A6CC1
:104BD00042F080521A641B6C03F080530193019BD6
:104BE0000125224B1B6813F4807F23D0A368012B7F
:104BF00034D0002B3CD11C4B1A6F22F001021A67F3
:104C00001A6F22F004021A67A368002B46D001F045
:104C1000B9F80646144B1B6F13F0020F4FD101F089
:104C2000B1F8801B41F288339842F3D90320AEE0FB
:104C30000025D6E70D4A136843F48073136001F032
:104C4000A1F80646094B1B6813F4807FCED101F012
:104C500099F8801B6428F5D9032098E0024A136F65
:104C600043F001031367CFE70038024000700040B3
:104C7000052B09D0484B1A6F22F001021A671A6FF0
:104C800022F004021A67BFE7434B1A6F42F0040296
:104C90001A671A6F42F001021A67B5E701F072F85D
:104CA00006463D4B1B6F13F0020F08D001F06AF867
:104CB000801B41F288339842F3D9032067E0F5B9AD
:104CC000A369002B62D0344A926802F00C02082AD1
:104CD0005FD0022B19D0304A136823F08073136021
:104CE00001F050F804462C4B1B6813F0007F47D0AE
:104CF00001F048F8001B0228F5D9032047E0264AB6
:104D0000136C23F080531364DAE7234A136823F00B
:104D10008073136001F036F805461F4B1B6813F0D3
:104D2000007F06D001F02EF8401B0228F5D90320A1
:104D30002DE0E369226A1343626A43EA8213A26A9E
:104D40005208013A43EA0243E26A43EA026343F04B
:104D50000053114A5360136843F08073136001F0ED
:104D600011F804460C4B1B6813F0007F06D101F0CC
:104D700009F8001B0228F5D9032008E0002006E00E
:104D8000002004E001207047012000E0002002B074
:104D900070BD0120FBE700BF00380240F8B5254B8D
:104DA0009B6803F00C03042B41D0082B01D0224850
:104DB000F8BD204B5A6802F03F025B6813F4800F85
:104DC00012D01C4B5968C1F3881100231B48A1FB6A
:104DD0000001FBF78DFA174B5B68C3F30143013306
:104DE0005B00B0FBF3F0F8BD124B5B68C3F38813B4
:104DF0001E4600275C010025E41A65EB0705A901A2
:104E000041EA9461A001001B61EB0501CB0043EA7C
:104E10005073C400A01943EB07018B0243EA90537F
:104E20008402204619460023FBF762FAD3E70348C1
:104E3000F8BD00BF003802400024F40040787D0136
:104E4000002800F0A28070B50446524B1B6803F0A6
:104E50000F038B420CD24F4A136823F00F030B430E
:104E60001360136803F00F03994201D0012070BD55
:104E7000236813F0020F17D013F0040F04D0464A32
:104E8000936843F4E0539360236813F0080F04D051
:104E9000414A936843F4604393603F4A936823F028
:104EA000F003A068034393600D46236813F0010FDD
:104EB00031D06368012B20D0022B25D0364A1268EE
:104EC00012F0020F63D034498A6822F003021343C0
:104ED0008B6000F057FF06462F4B9B6803F00C03D6
:104EE0006268B3EB820F16D000F04CFF801B41F2DA
:104EF00088339842F0D9032070BD274A126812F413
:104F0000003FE0D1012070BD234A126812F0007FFB
:104F1000D9D1012070BD1F4B1B6803F00F039D42C8
:104F20000CD21C4A136823F00F032B431360136841
:104F300003F00F039D4201D0012070BD236813F0E0
:104F4000040F06D0144A936823F4E053E1680B433E
:104F50009360236813F0080F07D00F4A936823F477
:104F60006043216943EAC1039360FFF717FF0A4BCF
:104F70009B68C3F30313094AD35CD840084B1860FD
:104F80000020FCF755FD002070BD01207047012076
:104F900070BD00BF003C0240003802408C30010868
:104FA00004000020014B1868704700BF0400002077
:104FB00008B5FFF7F7FF044B9B68C3F38223034A4E
:104FC000D35CD84008BD00BF003802409C300108C7
:104FD00008B5FFF7E7FF044B9B68C3F34233034A6E
:104FE000D35CD84008BD00BF003802409C300108A7
:104FF0000F2303600B4B9A6802F0030242609A6829
:1050000002F0F00282609A6802F4E052C2609B688B
:10501000DB0803F4E0530361034B1B6803F00F0349
:105020000B60704700380240003C0240F0B583B08E
:105030000446036813F0010F0CD0AF4B9A6822F4BA
:1050400000029A609A68416B0A439A60436BC3B14D
:10505000002700E00027236813F4002F15D0A64A8C
:10506000D2F88C3023F44013E16B0B43C2F88C3040
:10507000E36BB3F5801F06D0002B00F01B810025E9
:1050800004E00127E7E70127F6E70025236813F48A
:10509000801F0FD0984AD2F88C3023F44003216C43
:1050A0000B43C2F88C30236CB3F5800F00F0048101
:1050B00003B90125236813F0807F00D0012713F086
:1050C000200F40F0FB80236813F0100F0CD08A4BA8
:1050D000D3F88C2022F08072C3F88C20D3F88C2077
:1050E000A16B0A43C3F88C20236813F4804F08D0C7
:1050F000814AD2F8903023F44033616E0B43C2F8FA
:105100009030236813F4004F08D07B4AD2F89030D7
:1051100023F44023A16E0B43C2F89030236813F4AC
:10512000803F08D0744AD2F8903023F44013E16EE7
:105130000B43C2F89030236813F4003F08D06E4A46
:10514000D2F8903023F44003216F0B43C2F8903023
:10515000236813F0400F08D0674AD2F8903023F04C
:105160000303616C0B43C2F89030236813F0800F87
:1051700008D0614AD2F8903023F00C03A16C0B43A5
:10518000C2F89030236813F4807F08D05A4AD2F8CE
:10519000903023F03003E16C0B43C2F89030236869
:1051A00013F4007F08D0544AD2F8903023F0C003A3
:1051B000216D0B43C2F89030236813F4806F08D040
:1051C0004D4AD2F8903023F44073616D0B43C2F81E
:1051D0009030236813F4006F08D0474AD2F890301B
:1051E00023F44063A16D0B43C2F89030236813F49D
:1051F000805F08D0404AD2F8903023F44053E16DEC
:105200000B43C2F89030236813F4005F08D03A4A89
:10521000D2F8903023F44043216E0B43C2F8903013
:10522000236813F4800F08D0334AD2F8903023F06B
:105230008063A16F0B43C2F89030236813F4001F02
:105240000DD02D4AD2F8903023F00063E16F0B436C
:10525000C2F89030E36FB3F1006F00F099802368DB
:1052600013F0080F00D0012513F4802F08D0224A34
:10527000D2F8903023F04073616F0B43C2F8903046
:10528000236813F4000F09D01B4AD2F8903023F0A2
:105290008053D4F880100B43C2F89030002F79D19E
:1052A0002368B3F1007F75D0002D40F00781002006
:1052B00003B0F0BD0125E9E60127F9E60E4B1A6CB3
:1052C00042F080521A641B6C03F080530193019BDF
:1052D0000A4A136843F48073136000F053FD0646D6
:1052E000064B1B6813F4807F0AD100F04BFD801B36
:1052F0006428F5D90320DBE7003802400070004045
:10530000B34B1B6F13F4407315D0226B02F4407241
:10531000934210D0AE4B1A6F22F44072196F41F4D1
:1053200080311967196F21F4803119671A671B6F73
:1053300013F0010F12D1236B03F44072B2F5407FDA
:105340001DD0A34A936823F4F8139360A0490B6F10
:10535000226BC2F30B0213430B67B4E600F012FD9D
:1053600006469B4B1B6F13F0020FE4D100F00AFDC1
:10537000801B41F288339842F3D9032098E7944880
:10538000826822F4F812934919400A438260DDE7EB
:10539000012564E78E4A136823F08063136000F0F0
:1053A000F1FC06468A4B1B6813F0006F06D000F034
:1053B000E9FC801B6428F5D9032079E7236813F002
:1053C000010F13D0636B8BB9814AD2F88430D2F8C5
:1053D0008410606803F4403343EA801301F0706185
:1053E0000B43A16843EA0173C2F88430236813F4C5
:1053F000002F03D0E26BB2F5801F43D013F4801F5F
:1054000003D0236CB3F5800F3CD0236813F0807F6A
:1054100011D06F4AD2F88400D2F8841066682369EC
:105420001B0443EA861300F07060034301F0E0417F
:105430000B43C2F88430236813F0007F0DD06268FC
:1054400023691B0443EA8213E26843EA0263A26809
:1054500043EA02735E4AC2F884305D4A136843F03F
:105460008063136000F08EFC0646594B1B6813F0F6
:10547000006F7FF419AF00F085FC801B6428F4D91D
:10548000032015E7524AD2F88430D2F884106068BD
:1054900003F4403343EA8013E06843EA006301F019
:1054A000E0410B43C2F88430D2F88C3023F01F0364
:1054B000616A01390B43C2F88C30A6E7444A13688D
:1054C00023F08053136000F05DFC0546404B1B68E1
:1054D00013F0005F06D000F055FC401B6428F5D99E
:1054E0000320E5E6236813F4002F01D0E26B22B11C
:1054F00013F4801F1DD0236CDBB9354AD2F88830F5
:10550000D2F88810606903F4403343EA8013A0693D
:1055100043EA006301F0E0410B43C2F88830D2F85F
:105520008C3023F4F853A16A013943EA0123C2F80D
:105530008C30236813F4001F03D0E36FB3F1006FC6
:1055400031D0236813F0080F19D0214AD2F88810FF
:10555000D2F88830606903F4403343EA801301F0E5
:1055600070610B43E16943EA0173C2F88830D2F8F5
:105570008C3023F44033E16A0B43C2F88C30144A78
:10558000136843F08053136000F0FCFB0446104B9B
:105590001B6813F0005F19D100F0F4FB001B6428B6
:1055A000F5D9032084E60A4AD2F88800D2F8881098
:1055B0006569236A1B0443EA851300F070600343A6
:1055C00001F0E0410B43C2F88830BAE700206FE6F3
:1055D00000380240FFFCFF0FF0B583B0002437E035
:1055E000092600E0002606FA0EF6324302336C4E1E
:1055F00046F823206B4B1A68EB4302EA03064F6818
:1056000017F4803F01D045EA0206664A16605268E8
:1056100003EA02064F6817F4003F01D045EA02068C
:10562000604A5660926803EA02064F6817F4801FCA
:1056300001D045EA02065B4A9660D26813404E6884
:1056400016F4001F01D045EA0203564AD360013424
:105650000F2C00F2A3800123A3400A6803EA02058D
:10566000AB42F4D14A68122A18BF022A12D14FEA7B
:10567000D40E0EF1080E50F82E2004F00706B600E6
:105680000F27B74022EA07020F6907FA06F63243EE
:1056900040F82E2006684FEA440E032202FA0EF26A
:1056A000D24316404F6807F0030707FA0EF73E4350
:1056B00006604E68771E112E18BF012F01D9122ED9
:1056C0000FD186681640CF6807FA0EF73E43866012
:1056D000466826EA03034E68C6F30016A640334325
:1056E0004360C3681A408B6803FA0EF31A43C26022
:1056F0004B6813F0805FAAD02B4B5A6C42F4804267
:105700005A645B6C03F480430193019BA3089E1CC5
:10571000234A52F8262004F003064FEA860E0F268D
:1057200006FA0EF622EA0602204FB8423FF45AAFBC
:105730001F4EB04222D006F58066B04220D006F55A
:105740008066B0421ED006F58066B0421CD006F5D9
:105750008066B0421AD006F58066B04218D006F5D1
:105760008066B04216D006F58066B04214D006F5C9
:105770008066B0423FF434AF0A2634E7012632E7B0
:10578000022630E703262EE704262CE705262AE723
:10579000062628E7072626E7082624E703B0F0BDFB
:1057A00000380140003C0140003802400000024047
:1057B0000004024000230F2B00F29280F0B50AE0B3
:1057C000092600E0002606FA02F294426FD0013367
:1057D0000F2B00F2848001229A4002EA0105AA42BE
:1057E000F5D106685F000324BC40E4432640066010
:1057F0004FEAD30E0EF1080E50F82EC003F0070644
:10580000B6000F2707FA06F62CEA060640F82E60C7
:10581000866826408660466826EA02024260C268C0
:105820001440C4604FEA930E0EF102042D4A52F860
:10583000244003F00302920097403C402A4EB042BD
:10584000C0D006F58066B04221D006F58066B04231
:105850001FD006F58066B0421DD006F58066B042C6
:105860001BD006F58066B04219D006F58066B042BE
:1058700017D006F58066B04215D006F58066B042B6
:1058800013D006F58066B0429AD00A269BE701261F
:1058900099E7022697E7032695E7042693E705266E
:1058A00091E706268FE707268DE708268BE70D4E42
:1058B0000EF1020256F8224024EA070746F8227049
:1058C0000A4C2668EA431640266065681540656004
:1058D000A5681540A560E5682A40E26077E7F0BD5D
:1058E000704700BF0038014000000240003C01400A
:1058F00012B9090481617047816170470268D3B2AF
:10590000103B0949A1FB03131B090849C95CC16588
:10591000032B04D8064B13408365806D7047044BFE
:10592000134004338365F8E7ABAAAAAA84300108C0
:1059300000FCFFFF836A826992B9012B0AD01BB178
:10594000022B01D000207047C36A13F0807F2CD156
:1059500000207047C36AB3F1C07F28D00020704791
:10596000B2F5005F05D0022B29D9032B15D00020FA
:105970007047032B03D8DFE803F01C041C0A002047
:105980007047C36A13F0807F15D100207047C36A47
:10599000B3F1C07F11D000207047C36A13F0807F3D
:1059A00001D001207047002070470120704701207E
:1059B0007047012070470120704701207047012087
:1059C0007047000070B5044600F0DCF9002C5DD093
:1059D0000546002384F83430022384F835302268E9
:1059E000136823F00103136023681A6812F0010F93
:1059F0000AD000F0C7F9401B0528F5D920236365BC
:105A0000032084F8350070BD1A682149114062688E
:105A1000A0680243E06802432069024360690243D0
:105A2000A0690243E0690243206A02430A43616AB3
:105A3000042916D01A602668756925F00705636A7F
:105A40001D43042B12D075612046FFF757FFE26D0E
:105A50003F239340836000206065012384F8353044
:105A600070BDE16A206B01430A43E3E7A36A1D436B
:105A7000E36A002BE7D02046FFF75CFF0028E2D066
:105A800040236365012084F8350070BD012070BD9E
:105A90003F8010F000282ED038B5044690F83530FD
:105AA000DBB2022B01D1022038BD0268136823F05B
:105AB00001031360036800251D6003685D600368CF
:105AC0009D600368DD6003681D61036821225A61DF
:105AD000FFF714FFE26D3F2393408360E563256485
